{
  "contractName": "Voting",
  "abi": [
    {
      "inputs": [
        {
          "internalType": "uint256[]",
          "name": "proposalNames",
          "type": "uint256[]"
        }
      ],
      "stateMutability": "nonpayable",
      "type": "constructor"
    },
    {
      "inputs": [
        {
          "internalType": "uint256",
          "name": "",
          "type": "uint256"
        }
      ],
      "name": "candidate",
      "outputs": [
        {
          "internalType": "address",
          "name": "Address",
          "type": "address"
        }
      ],
      "stateMutability": "view",
      "type": "function",
      "constant": true
    },
    {
      "inputs": [],
      "name": "chairperson",
      "outputs": [
        {
          "internalType": "address",
          "name": "",
          "type": "address"
        }
      ],
      "stateMutability": "view",
      "type": "function",
      "constant": true
    },
    {
      "inputs": [
        {
          "internalType": "uint256",
          "name": "",
          "type": "uint256"
        }
      ],
      "name": "proposals",
      "outputs": [
        {
          "internalType": "uint256",
          "name": "name",
          "type": "uint256"
        },
        {
          "internalType": "uint256",
          "name": "voteCount",
          "type": "uint256"
        }
      ],
      "stateMutability": "view",
      "type": "function",
      "constant": true
    },
    {
      "inputs": [],
      "name": "showVoter",
      "outputs": [
        {
          "internalType": "uint256",
          "name": "weight",
          "type": "uint256"
        },
        {
          "internalType": "bool",
          "name": "voted",
          "type": "bool"
        },
        {
          "internalType": "address",
          "name": "delegate",
          "type": "address"
        },
        {
          "internalType": "uint256",
          "name": "vote",
          "type": "uint256"
        }
      ],
      "stateMutability": "view",
      "type": "function",
      "constant": true
    },
    {
      "inputs": [
        {
          "internalType": "address",
          "name": "",
          "type": "address"
        }
      ],
      "name": "voters",
      "outputs": [
        {
          "internalType": "uint256",
          "name": "weight",
          "type": "uint256"
        },
        {
          "internalType": "bool",
          "name": "voted",
          "type": "bool"
        },
        {
          "internalType": "address",
          "name": "delegate",
          "type": "address"
        },
        {
          "internalType": "uint256",
          "name": "vote",
          "type": "uint256"
        }
      ],
      "stateMutability": "view",
      "type": "function",
      "constant": true
    },
    {
      "inputs": [],
      "name": "votingevent",
      "outputs": [
        {
          "internalType": "uint256",
          "name": "totalproposal",
          "type": "uint256"
        },
        {
          "internalType": "uint256",
          "name": "totalvote",
          "type": "uint256"
        }
      ],
      "stateMutability": "view",
      "type": "function",
      "constant": true
    },
    {
      "inputs": [],
      "name": "winningProposalPublic",
      "outputs": [
        {
          "internalType": "uint256",
          "name": "",
          "type": "uint256"
        }
      ],
      "stateMutability": "view",
      "type": "function",
      "constant": true
    },
    {
      "inputs": [
        {
          "internalType": "address",
          "name": "voter",
          "type": "address"
        }
      ],
      "name": "giveRightToVote",
      "outputs": [],
      "stateMutability": "nonpayable",
      "type": "function"
    },
    {
      "inputs": [
        {
          "internalType": "address",
          "name": "to",
          "type": "address"
        }
      ],
      "name": "delegate",
      "outputs": [],
      "stateMutability": "nonpayable",
      "type": "function"
    },
    {
      "inputs": [
        {
          "internalType": "uint256",
          "name": "proposal",
          "type": "uint256"
        }
      ],
      "name": "vote",
      "outputs": [],
      "stateMutability": "nonpayable",
      "type": "function"
    },
    {
      "inputs": [],
      "name": "winningProposal",
      "outputs": [
        {
          "internalType": "uint256",
          "name": "winningProposal_",
          "type": "uint256"
        }
      ],
      "stateMutability": "nonpayable",
      "type": "function"
    },
    {
      "inputs": [
        {
          "internalType": "uint256",
          "name": "proposal",
          "type": "uint256"
        }
      ],
      "name": "viewVoter",
      "outputs": [
        {
          "internalType": "address[]",
          "name": "votersAddress",
          "type": "address[]"
        }
      ],
      "stateMutability": "view",
      "type": "function",
      "constant": true
    },
    {
      "inputs": [],
      "name": "viewRank",
      "outputs": [
        {
          "internalType": "uint256[]",
          "name": "rankName",
          "type": "uint256[]"
        },
        {
          "internalType": "uint256[]",
          "name": "rankVote",
          "type": "uint256[]"
        }
      ],
      "stateMutability": "view",
      "type": "function",
      "constant": true
    },
    {
      "inputs": [
        {
          "internalType": "address",
          "name": "voter",
          "type": "address"
        }
      ],
      "name": "voterInfo",
      "outputs": [],
      "stateMutability": "nonpayable",
      "type": "function"
    }
  ],
  "bytecode": "0x6080604052600160008060009054906101000a900473ffffffffffffffffffffffffffffffffffffffff1673ffffffffffffffffffffffffffffffffffffffff1673ffffffffffffffffffffffffffffffffffffffff16815260200190815260200160002064e8d4a51005600082015481600001556001820160009054906101000a900460ff168160010160006101000a81548160ff0219169083151502179055506001820160019054906101000a900473ffffffffffffffffffffffffffffffffffffffff168160010160016101000a81548173ffffffffffffffffffffffffffffffffffffffff021916908373ffffffffffffffffffffffffffffffffffffffff16021790555060028201548160020155505034801561012057600080fd5b506040516118a13803806118a18339818101604052602081101561014357600080fd5b810190808051604051939291908464010000000082111561016357600080fd5b8382019150602082018581111561017957600080fd5b825186602082028301116401000000008211171561019657600080fd5b8083526020830192505050908051906020019060200280838360005b838110156101cd5780820151818401526020810190506101b2565b50505050905001604052505050336000806101000a81548173ffffffffffffffffffffffffffffffffffffffff021916908373ffffffffffffffffffffffffffffffffffffffff16021790555060018060008060009054906101000a900473ffffffffffffffffffffffffffffffffffffffff1673ffffffffffffffffffffffffffffffffffffffff1673ffffffffffffffffffffffffffffffffffffffff1681526020019081526020016000206000018190555080516003600001819055506001600360010181905550600064e8d4a510048190555060005b815181101561032757600260405180604001604052808484815181106102c957fe5b60200260200101518152602001600081525090806001815401808255809150506001900390600052602060002090600202016000909190919091506000820151816000015560208201518160010155505080806001019150506102a7565b5050611569806103386000396000f3fe608060405234801561001057600080fd5b50600436106100ea5760003560e01c80639e7b8d611161008c578063b0ff948411610066578063b0ff94841461038d578063b462d35a146103ab578063bcdf689a1461042e578063cdf58d35146104d5576100ea565b80639e7b8d6114610279578063a3ec138d146102bd578063a6b28ab114610342576100ea565b80632e4176cf116100c85780632e4176cf146101be5780635c19a95c146101f2578063609ff1bd1461023657806388870b0e14610254576100ea565b80630121b93f146100ef578063013cf08b1461011d5780631de43c4b14610166575b600080fd5b61011b6004803603602081101561010557600080fd5b8101908080359060200190929190505050610519565b005b6101496004803603602081101561013357600080fd5b81019080803590602001909291905050506106bf565b604051808381526020018281526020019250505060405180910390f35b6101926004803603602081101561017c57600080fd5b81019080803590602001909291905050506106f3565b604051808273ffffffffffffffffffffffffffffffffffffffff16815260200191505060405180910390f35b6101c6610738565b604051808273ffffffffffffffffffffffffffffffffffffffff16815260200191505060405180910390f35b6102346004803603602081101561020857600080fd5b81019080803573ffffffffffffffffffffffffffffffffffffffff16906020019092919050505061075c565b005b61023e610b78565b6040518082815260200191505060405180910390f35b61025c610c17565b604051808381526020018281526020019250505060405180910390f35b6102bb6004803603602081101561028f57600080fd5b81019080803573ffffffffffffffffffffffffffffffffffffffff169060200190929190505050610c29565b005b6102ff600480360360208110156102d357600080fd5b81019080803573ffffffffffffffffffffffffffffffffffffffff169060200190929190505050610e96565b6040518085815260200184151581526020018373ffffffffffffffffffffffffffffffffffffffff16815260200182815260200194505050505060405180910390f35b61034a610ef3565b6040518085815260200184151581526020018373ffffffffffffffffffffffffffffffffffffffff16815260200182815260200194505050505060405180910390f35b610395610f42565b6040518082815260200191505060405180910390f35b6103d7600480360360208110156103c157600080fd5b8101908080359060200190929190505050610f4c565b6040518080602001828103825283818151815260200191508051906020019060200280838360005b8381101561041a5780820151818401526020810190506103ff565b505050509050019250505060405180910390f35b6104366110e8565b604051808060200180602001838103835285818151815260200191508051906020019060200280838360005b8381101561047d578082015181840152602081019050610462565b50505050905001838103825284818151815260200191508051906020019060200280838360005b838110156104bf5780820151818401526020810190506104a4565b5050505090500194505050505060405180910390f35b610517600480360360208110156104eb57600080fd5b81019080803573ffffffffffffffffffffffffffffffffffffffff1690602001909291905050506113fe565b005b6000600160003373ffffffffffffffffffffffffffffffffffffffff1673ffffffffffffffffffffffffffffffffffffffff16815260200190815260200160002090506000816000015414156105d7576040517f08c379a00000000000000000000000000000000000000000000000000000000081526004018080602001828103825260148152602001807f486173206e6f20726967687420746f20766f746500000000000000000000000081525060200191505060405180910390fd5b8060010160009054906101000a900460ff161561065c576040517f08c379a000000000000000000000000000000000000000000000000000000000815260040180806020018281038252600e8152602001807f416c726561647920766f7465642e00000000000000000000000000000000000081525060200191505060405180910390fd5b60018160010160006101000a81548160ff02191690831515021790555081816002018190555080600001546002838154811061069457fe5b9060005260206000209060020201600101600082825401925050819055506106ba610b78565b505050565b600281815481106106cf57600080fd5b90600052602060002090600202016000915090508060000154908060010154905082565b60058164e8d4a50fff811061070757600080fd5b016000915090508060000160009054906101000a900473ffffffffffffffffffffffffffffffffffffffff16905081565b60008054906101000a900473ffffffffffffffffffffffffffffffffffffffff1681565b6000600160003373ffffffffffffffffffffffffffffffffffffffff1673ffffffffffffffffffffffffffffffffffffffff16815260200190815260200160002090508060010160009054906101000a900460ff1615610824576040517f08c379a00000000000000000000000000000000000000000000000000000000081526004018080602001828103825260128152602001807f596f7520616c726561647920766f7465642e000000000000000000000000000081525060200191505060405180910390fd5b3373ffffffffffffffffffffffffffffffffffffffff168273ffffffffffffffffffffffffffffffffffffffff1614156108c6576040517f08c379a000000000000000000000000000000000000000000000000000000000815260040180806020018281038252601e8152602001807f53656c662d64656c65676174696f6e20697320646973616c6c6f7765642e000081525060200191505060405180910390fd5b5b600073ffffffffffffffffffffffffffffffffffffffff16600160008473ffffffffffffffffffffffffffffffffffffffff1673ffffffffffffffffffffffffffffffffffffffff16815260200190815260200160002060010160019054906101000a900473ffffffffffffffffffffffffffffffffffffffff1673ffffffffffffffffffffffffffffffffffffffff1614610a6957600160008373ffffffffffffffffffffffffffffffffffffffff1673ffffffffffffffffffffffffffffffffffffffff16815260200190815260200160002060010160019054906101000a900473ffffffffffffffffffffffffffffffffffffffff1691503373ffffffffffffffffffffffffffffffffffffffff168273ffffffffffffffffffffffffffffffffffffffff161415610a64576040517f08c379a00000000000000000000000000000000000000000000000000000000081526004018080602001828103825260198152602001807f466f756e64206c6f6f7020696e2064656c65676174696f6e2e0000000000000081525060200191505060405180910390fd5b6108c7565b60018160010160006101000a81548160ff021916908315150217905550818160010160016101000a81548173ffffffffffffffffffffffffffffffffffffffff021916908373ffffffffffffffffffffffffffffffffffffffff1602179055506000600160008473ffffffffffffffffffffffffffffffffffffffff1673ffffffffffffffffffffffffffffffffffffffff16815260200190815260200160002090508060010160009054906101000a900460ff1615610b5c5781600001546002826002015481548110610b3957fe5b906000526020600020906002020160010160008282540192505081905550610b73565b816000015481600001600082825401925050819055505b505050565b6000806000905060005b600280549050811015610c07578160028281548110610b9d57fe5b9060005260206000209060020201600101541115610bde5760028181548110610bc257fe5b9060005260206000209060020201600101549150809250610bfa565b8160028281548110610bec57fe5b906000526020600020905050505b8080600101915050610b82565b508164e8d4a51004819055505090565b60038060000154908060010154905082565b60008054906101000a900473ffffffffffffffffffffffffffffffffffffffff1673ffffffffffffffffffffffffffffffffffffffff163373ffffffffffffffffffffffffffffffffffffffff1614610ccd576040517f08c379a000000000000000000000000000000000000000000000000000000000815260040180806020018281038252602881526020018061150c6028913960400191505060405180910390fd5b600160008273ffffffffffffffffffffffffffffffffffffffff1673ffffffffffffffffffffffffffffffffffffffff16815260200190815260200160002060010160009054906101000a900460ff1615610d90576040517f08c379a00000000000000000000000000000000000000000000000000000000081526004018080602001828103825260188152602001807f54686520766f74657220616c726561647920766f7465642e000000000000000081525060200191505060405180910390fd5b6000600160008373ffffffffffffffffffffffffffffffffffffffff1673ffffffffffffffffffffffffffffffffffffffff1681526020019081526020016000206000015414610ddf57600080fd5b60018060008373ffffffffffffffffffffffffffffffffffffffff1673ffffffffffffffffffffffffffffffffffffffff1681526020019081526020016000206000018190555080600560036001015464e8d4a50fff8110610e3d57fe5b0160000160006101000a81548173ffffffffffffffffffffffffffffffffffffffff021916908373ffffffffffffffffffffffffffffffffffffffff160217905550600160036001016000828254019250508190555050565b60016020528060005260406000206000915090508060000154908060010160009054906101000a900460ff16908060010160019054906101000a900473ffffffffffffffffffffffffffffffffffffffff16908060020154905084565b64e8d4a510058060000154908060010160009054906101000a900460ff16908060010160019054906101000a900473ffffffffffffffffffffffffffffffffffffffff16908060020154905084565b64e8d4a510045481565b6060600060028381548110610f5d57fe5b906000526020600020906002020160010154905060008167ffffffffffffffff81118015610f8a57600080fd5b50604051908082528060200260200182016040528015610fb95781602001602082028036833780820191505090505b5090506000805b6003600101548110156110dc57856001600060058464e8d4a50fff8110610fe357fe5b0160000160009054906101000a900473ffffffffffffffffffffffffffffffffffffffff1673ffffffffffffffffffffffffffffffffffffffff1673ffffffffffffffffffffffffffffffffffffffff1681526020019081526020016000206002015414156110cf5760058164e8d4a50fff811061105d57fe5b0160000160009054906101000a900473ffffffffffffffffffffffffffffffffffffffff1683838151811061108e57fe5b602002602001019073ffffffffffffffffffffffffffffffffffffffff16908173ffffffffffffffffffffffffffffffffffffffff16815250506001820191505b8080600101915050610fc0565b50819350505050919050565b606080600060036000015467ffffffffffffffff8111801561110957600080fd5b5060405190808252806020026020018201604052801561114357816020015b6111306114f1565b8152602001906001900390816111285790505b50905060005b6003600001548110156111d1576002805480602002602001604051908101604052809291908181526020016000905b828210156111be57838290600052602060002090600202016040518060400160405290816000820154815260200160018201548152505081526020019060010190611178565b5050505091508080600101915050611149565b506111da6114f1565b60005b6003600001548110156112b35760005b81600160036000015403038110156112a55783600182018151811061120e57fe5b60200260200101516020015184828151811061122657fe5b60200260200101516020015110156112985783818151811061124457fe5b6020026020010151925083600182018151811061125d57fe5b602002602001015184828151811061127157fe5b60200260200101819052508284600183018151811061128c57fe5b60200260200101819052505b80806001019150506111ed565b5080806001019150506111dd565b50600060036000015467ffffffffffffffff811180156112d257600080fd5b506040519080825280602002602001820160405280156113015781602001602082028036833780820191505090505b50905060005b6003600001548110156113515783818151811061132057fe5b60200260200101516000015182828151811061133857fe5b6020026020010181815250508080600101915050611307565b50600060036000015467ffffffffffffffff8111801561137057600080fd5b5060405190808252806020026020018201604052801561139f5781602001602082028036833780820191505090505b50905060005b6003600001548110156113ef578481815181106113be57fe5b6020026020010151602001518282815181106113d657fe5b60200260200101818152505080806001019150506113a5565b50818195509550505050509091565b600160008273ffffffffffffffffffffffffffffffffffffffff1673ffffffffffffffffffffffffffffffffffffffff16815260200190815260200160002064e8d4a51005600082015481600001556001820160009054906101000a900460ff168160010160006101000a81548160ff0219169083151502179055506001820160019054906101000a900473ffffffffffffffffffffffffffffffffffffffff168160010160016101000a81548173ffffffffffffffffffffffffffffffffffffffff021916908373ffffffffffffffffffffffffffffffffffffffff1602179055506002820154816002015590505050565b60405180604001604052806000815260200160008152509056fe4f6e6c79206368616972706572736f6e2063616e206769766520726967687420746f20766f74652ea2646970667358221220ef64add4379147ce25ef09146392be444bcb0bf0e538b78724f67e7f963f2ff764736f6c63430007060033",
  "immutableReferences": {},
  "source": "// SPDX-License-Identifier: GPL-3.0\n\npragma solidity >=0.6.0 < 0.8.0;\n\n/** \n * @title StatementVoting\n * @author IP Sheung Chiu, Li Chun Ngai\n * Implements voting process along with vote delegation and added funciton that allow users to get more information\n */\ncontract Voting {\n    \n    struct EventInformation {\n        uint totalproposal; // total proposal that in the voting event\n        uint totalvote; // total vote that the chairperson give out\n    }\n   \n    struct Voter {\n        uint weight; // weight is accumulated by delegation\n        bool voted;  // if true, that person already voted\n        address delegate; // person delegated to\n        uint vote;   // index of the voted proposal\n    }\n\n    struct Proposal {\n        // If you can limit the length to a certain number of bytes, \n        // always use one of bytes1 to bytes32 because they are much cheaper\n        uint name;   // short name (up to 32 bytes)\n        uint voteCount; // number of accumulated votes\n    }\n    \n    struct Candidate {\n        address Address; //To store the candidate address who can vote in this voting event\n    }\n\n    address public chairperson; //The address of the chairperson who deploy the smart contract\n\n    mapping(address => Voter) public voters;\n\n    Proposal[] public proposals;\n    EventInformation public votingevent;\n    Candidate[999999999999] public candidate;\n\tuint public winningProposalPublic;\n\n    /** \n     * @dev Create a new ballot to choose one of 'proposalNames'.\n     * @param proposalNames names of proposals\n     */\n    constructor(uint[] memory proposalNames){\n        chairperson = msg.sender;\n        voters[chairperson].weight = 1;\n        votingevent.totalproposal = proposalNames.length;\n\t\tvotingevent.totalvote = 1;\n\t\twinningProposalPublic = 0;\n\n        for (uint i = 0; i < proposalNames.length; i++) {\n            // 'Proposal({...})' creates a temporary\n            // Proposal object and 'proposals.push(...)'\n            // appends it to the end of 'proposals'.\n            proposals.push(Proposal({\n                name: proposalNames[i],\n                voteCount: 0\n            }));\n        }\n    }\n    \n    /** \n     * @dev Give 'voter' the right to vote on this ballot. May only be called by 'chairperson'.\n     * @param voter address of voter\n     */\n    function giveRightToVote(address voter) public {\n        require(\n            msg.sender == chairperson,\n            \"Only chairperson can give right to vote.\"\n        );\n        require(\n            !voters[voter].voted,\n            \"The voter already voted.\"\n        );\n        require(voters[voter].weight == 0);\n        voters[voter].weight = 1;\n        candidate[votingevent.totalvote].Address = voter;\n        votingevent.totalvote += 1;\n    }\n\n    /**\n     * @dev Delegate your vote to the voter 'to'.\n     * @param to address to which vote is delegated\n     */\n    function delegate(address to) public {\n        Voter storage sender = voters[msg.sender];\n        require(!sender.voted, \"You already voted.\");\n        require(to != msg.sender, \"Self-delegation is disallowed.\");\n\n        while (voters[to].delegate != address(0)) {\n            to = voters[to].delegate;\n\n            // We found a loop in the delegation, not allowed.\n            require(to != msg.sender, \"Found loop in delegation.\");\n        }\n        sender.voted = true;\n        sender.delegate = to;\n        Voter storage delegate_ = voters[to];\n        if (delegate_.voted) {\n            // If the delegate already voted,\n            // directly add to the number of votes.\n            proposals[delegate_.vote].voteCount += sender.weight;\n        } else {\n            // If the delegate did not vote yet,\n            // add to her weight.\n            delegate_.weight += sender.weight;\n        }\n\t//winningProposal();\n    }\n\n    /**\n     * @dev Give your vote (including votes delegated to you) to proposal 'proposals[proposal].name'.\n     * @param proposal index of proposal in the proposals array\n     */\n    function vote(uint proposal) public {\n        Voter storage sender = voters[msg.sender];\n        require(sender.weight != 0, \"Has no right to vote\");\n        require(!sender.voted, \"Already voted.\");\n        sender.voted = true;\n        sender.vote = proposal;\n\n        // If 'proposal' is out of the range of the array,\n        // this will throw automatically and revert all changes.\n        proposals[proposal].voteCount += sender.weight;\n        winningProposal();\n    }\n    \n\n    /** \n     * @dev Computes the winning proposal taking all previous votes into account.\n     * @return winningProposal_ index of winning proposal in the proposals array\n     */\n\t//bool public tieCheck = false;\n    function winningProposal() public\n            returns (uint winningProposal_)\n    {\n        uint winningVoteCount = 0;\n        //bool tieCheck = false;\n        for (uint p = 0; p < proposals.length; p++) {\n            if (proposals[p].voteCount > winningVoteCount) {\n                winningVoteCount = proposals[p].voteCount;\n                winningProposal_ = p;\n                //tieCheck = false;\n            } else if (proposals[p].voteCount == winningVoteCount) {\n                //tieCheck = true;\n            }\n        }\n        winningProposalPublic = winningProposal_;\n        // If 'tieCheck' is true,\n        // which mean there are more than one winner,\n        // it will not return anythings.\n        // you can use viewRank() to check the result.\n        //require(tieCheck == false, \"The event got tiebreak.\");\n    }\n\n    /** \n     * @dev Calls winningProposal() function to get the index of the winner contained in the proposals array and then\n     * @return winnerName_ the name of the winner\n     * @return voteCount_ the vote count of the winner\n     */\n     /*\n    function winnerName() public view\n            returns (uint winnerName_, uint voteCount_)\n    {\n        winnerName_ = proposals[winningProposal()].name;\n        voteCount_ =  proposals[winningProposal()].voteCount;\n    }\n    */\n    /**\n     * @dev Call viewVoter(uint proposal) funciton to get the voter address who voted to that proposal\n     * @param proposal the proposal that you wnat to find out the voter adress\n     * @return votersAddress an array of voter address\n     */\n    function viewVoter(uint proposal) public view\n                returns (address[] memory votersAddress)\n    {\n        uint mazVoteCount = proposals[proposal].voteCount;\n        address[] memory voterAddressArray = new address[](mazVoteCount);\n        uint p = 0;\n        for (uint i = 0; i < votingevent.totalvote; i++){\n            if (voters[candidate[i].Address].vote == proposal){\n                voterAddressArray[p] = candidate[i].Address;\n                p += 1;\n            }\n        }\n        return voterAddressArray;\n    }\n    \n    /**\n     * @dev Call viewRank() function to get the rank of the proposal\n     * @return rankName ranked proposal name \n     * @return rankVote ranked proposal vote count\n     */\n    function viewRank() public view\n                returns (uint[] memory rankName, uint[] memory rankVote)\n    {\n        Proposal[] memory tempProposal = new Proposal[](votingevent.totalproposal);\n        for (uint i = 0; i < votingevent.totalproposal; i++){\n            tempProposal = proposals;\n        }\n        Proposal memory swapProposal;\n        for (uint k = 0; k < votingevent.totalproposal; k++){\n            for (uint j = 0; j < votingevent.totalproposal - 1 - k; j++){\n                if (tempProposal[j].voteCount < tempProposal[j + 1].voteCount){\n                    swapProposal = tempProposal[j];\n                    tempProposal[j] = tempProposal[j + 1];\n                    tempProposal[j + 1] = swapProposal;\n                }\n            }\n        }\n        uint[] memory tempname = new uint[](votingevent.totalproposal);\n        for (uint p = 0; p < votingevent.totalproposal; p++){\n            tempname[p] = tempProposal[p].name;\n        }\n        uint[] memory tempvote = new uint[](votingevent.totalproposal);\n        for (uint q = 0; q < votingevent.totalproposal; q++){\n            tempvote[q] = tempProposal[q].voteCount;\n        }\n        return (tempname, tempvote);\n    }\n\tVoter public showVoter = voters[chairperson];\n\tfunction voterInfo(address voter) public {\n\t\tshowVoter = voters[voter];\n\t}\n}",
  "sourcePath": "C:/Users/User/Desktop/FYP/contracts/Voting.sol",
  "compiler": {
    "name": "solc",
    "version": "0.7.6+commit.7338295f.Emscripten.clang"
  },
  "schemaVersion": "3.3.4",
  "updatedAt": "2021-04-22T16:03:15.794Z",
  "networkType": "ethereum",
  "devdoc": {
    "author": "IP Sheung Chiu, Li Chun Ngai Implements voting process along with vote delegation and added funciton that allow users to get more information",
    "kind": "dev",
    "methods": {
      "constructor": {
        "details": "Create a new ballot to choose one of 'proposalNames'.",
        "params": {
          "proposalNames": "names of proposals"
        }
      },
      "delegate(address)": {
        "details": "Delegate your vote to the voter 'to'.",
        "params": {
          "to": "address to which vote is delegated"
        }
      },
      "giveRightToVote(address)": {
        "details": "Give 'voter' the right to vote on this ballot. May only be called by 'chairperson'.",
        "params": {
          "voter": "address of voter"
        }
      },
      "viewRank()": {
        "details": "Call viewRank() function to get the rank of the proposal",
        "returns": {
          "rankName": "ranked proposal name ",
          "rankVote": "ranked proposal vote count"
        }
      },
      "viewVoter(uint256)": {
        "details": "Call viewVoter(uint proposal) funciton to get the voter address who voted to that proposal",
        "params": {
          "proposal": "the proposal that you wnat to find out the voter adress"
        },
        "returns": {
          "votersAddress": "an array of voter address"
        }
      },
      "vote(uint256)": {
        "details": "Give your vote (including votes delegated to you) to proposal 'proposals[proposal].name'.",
        "params": {
          "proposal": "index of proposal in the proposals array"
        }
      },
      "winningProposal()": {
        "details": "Computes the winning proposal taking all previous votes into account.",
        "returns": {
          "winningProposal_": "index of winning proposal in the proposals array"
        }
      }
    },
    "title": "StatementVoting",
    "version": 1
  },
  "userdoc": {
    "kind": "user",
    "methods": {},
    "version": 1
  }
}